:100000000C9462000C948A000C948A000C948A0070
:100010000C948A000C948A000C948A000C948A0038
:100020000C948A000C948A000C948A000C948A0028
:100030000C948A000C948A000C948A000C948A0018
:100040000C94A0020C948A000C946E020C9448024A
:100050000C948A000C948A000C948A000C948A00F8
:100060000C948A000C948A000000000024002700F1
:100070002A0000000000250028002B0000000008D6
:10008000000201000003040700000000000000005F
:1000900000000000230026002900040404040404D6
:1000A0000404020202020202030303030303010227
:1000B00004081020408001020408102001020408F6
:1000C0001020D50411241FBECFEFD8E0DEBFCDBF76
:1000D00011E0A0E0B1E0E4ECFCE002C005900D927C
:1000E000A233B107D9F721E0A2E3B1E001C01D922C
:1000F000AA3DB207E1F710E0C2E6D0E004C02197C4
:10010000FE010E945A06C136D107C9F70E942F038B
:100110000C9460060C940000AF92BF92CF92DF92D5
:10012000EF92FF920F931F93CF93DF936C017B01AC
:100130008B01040F151FEB015E01AE18BF08C0173D
:10014000D10759F06991D601ED91FC910190F081B0
:10015000E02DC6010995892B79F7C501DF91CF9173
:100160001F910F91FF90EF90DF90CF90BF90AF90D5
:100170000895FC01538D448D252F30E0842F90E0AD
:10018000821B930B541710F0CF9608950197089592
:10019000FC01918D828D981761F0A28DAE0FBF2F5B
:1001A000B11D5D968C91928D9F5F9F73928F90E0B1
:1001B00008958FEF9FEF0895FC01918D828D981720
:1001C00031F0828DE80FF11D858D90E008958FEF5D
:1001D0009FEF0895FC01918D228D892F90E0805C26
:1001E0009F4F821B91098F73992708958DE391E0AA
:1001F0000E94EA0021E0892B09F420E0822F089573
:1002000080E090E0892B29F00E94F60081110C9487
:1002100000000895FC01A48DA80FB92FB11DA35AA9
:10022000BF4F2C91848D90E001968F739927848F16
:10023000A689B7892C93A089B1898C918370806439
:100240008C93938D848D981306C00288F389E02DDA
:1002500080818F7D80830895EF92FF920F931F938B
:10026000CF93DF93EC0181E0888F9B8D8C8D981369
:100270001AC0E889F989808185FF15C09FB7F89475
:10028000EE89FF896083E889F989808183708064C1
:1002900080839FBF81E090E0DF91CF911F910F910C
:1002A000FF90EF900895F62E0B8D10E00F5F1F4F1B
:1002B0000F731127E02E8C8D8E110CC00FB607FC2A
:1002C000FACFE889F989808185FFF5CFCE010E94B8
:1002D0000A01F1CFEB8DEC0FFD2FF11DE35AFF4F1B
:1002E000F0829FB7F8940B8FEA89FB898081806246
:1002F000CFCFCF93DF93EC01888D8823B9F0AA8903
:10030000BB89E889F9898C9185FD03C0808186FDD0
:100310000DC00FB607FCF7CF8C9185FFF2CF80811F
:1003200085FFEDCFCE010E940A01E9CFDF91CF9189
:10033000089590E0FC01E458FF4F2491FC01E25540
:10034000FF4F3491FC01E656FF4FE491EE23C9F0D4
:10035000222339F0233001F1A8F4213019F12230A1
:1003600029F1F0E0EE0FFF1FEE58FF4FA591B49179
:100370008FB7F894EC91611126C030953E233C93E1
:100380008FBF08952730A9F02830C9F0243049F7ED
:10039000809180008F7D03C0809180008F77809353
:1003A0008000DFCF84B58F7784BDDBCF84B58F7DB0
:1003B000FBCF8091B0008F778093B000D2CF809137
:1003C000B0008F7DF9CF3E2BDACFCF93DF9390E053
:1003D000FC01E255FF4F249186569F4FFC0184910A
:1003E0008823D1F090E0880F991FFC01E859FF4F56
:1003F000A591B491FC01EE58FF4FC591D4916111C4
:100400000EC09FB7F8948C91E22FE0958E238C93C9
:100410002881E223E8839FBFDF91CF9108958FB7B2
:10042000F894EC91E22BEC938FBFF6CF3FB7F894A2
:100430008091370190913801A0913901B0913A0132
:1004400026B5A89B05C02F3F19F00196A11DB11D2F
:100450003FBFBA2FA92F982F8827BC01CD01620F6B
:10046000711D811D911D42E0660F771F881F991F26
:100470004A95D1F70895FC0101900020E9F73197E2
:10048000AF01481B590BBC018DE391E00C948C002B
:100490001F920F920FB60F9211242F933F934F93F9
:1004A0005F936F937F938F939F93AF93BF93EF93DC
:1004B000FF938DE391E00E940A01FF91EF91BF91BC
:1004C000AF919F918F917F916F915F914F913F91EC
:1004D0002F910F900FBE0F901F9018951F920F92A3
:1004E0000FB60F9211242F938F939F93EF93FF9347
:1004F000E0914D01F0914E018081E0915301F09126
:10050000540182FD1BC09081809156018F5F8F73D3
:1005100020915701821741F0E0915601F0E0E35C31
:10052000FE4F958F80935601FF91EF919F918F9190
:100530002F910F900FBE0F901F9018958081F4CFD0
:100540001F920F920FB60F9211242F933F938F9308
:100550009F93AF93BF938091330190913401A09109
:100560003501B09136013091320123E0230F2D3750
:1005700058F50196A11DB11D2093320180933301DE
:1005800090933401A0933501B093360180913701E7
:1005900090913801A0913901B0913A010196A11DC5
:1005A000B11D8093370190933801A0933901B09326
:1005B0003A01BF91AF919F918F913F912F910F90F1
:1005C0000FBE0F901F90189526E8230F0296A11DCD
:1005D000B11DD2CFCF92DF92EF92FF920F931F9374
:1005E000E82FF92F05C0015011092109310961F1E6
:1005F000908196239417B9F305C001501109210980
:10060000310911F1908196239413F7CFC12CD12C8D
:10061000E12CF12C0AC08FEFC81AD80AE80AF80AB0
:100620000C151D052E053F0579F080818623841762
:1006300091F36C2D7D2D8E2D9F2D1F910F91FF908D
:10064000EF90DF90CF90089560E070E080E090E060
:100650001F910F91FF90EF90DF90CF900895CF936F
:10066000DF93CDB7DEB7A1970FB6F894DEBF0FBE0C
:10067000CDBF789484B5826084BD84B5816084BD2B
:1006800085B5826085BD85B5816085BD80916E0030
:10069000816080936E001092810080918100826061
:1006A000809381008091810081608093810080919E
:1006B00080008160809380008091B100846080938D
:1006C000B1008091B00081608093B00080917A0089
:1006D000846080937A0080917A00826080937A00AF
:1006E00080917A00816080937A0080917A0080689E
:1006F00080937A001092C100E0914D01F0914E017B
:1007000082E08083E0914901F0914A011082E091FA
:100710004B01F0914C018FEC808310925501E091D8
:100720005101F091520186E08083E0914F01F091F8
:100730005001808180618083E0914F01F0915001F0
:10074000808188608083E0914F01F0915001808129
:1007500080688083E0914F01F091500180818F7D0E
:10076000808361E088E00E94E50160E089E00E940A
:10077000E50161E082E00E94E50161E083E00E9422
:10078000E50161E084E00E94E50161E085E00E940E
:10079000E50123E2222E312C3AE0832E912CA12C6C
:1007A000B12C60E088E00E9499018FE090E0019711
:1007B000F1F761E088E00E949901C1010197F1F72A
:1007C00060E088E00E949901E7EBF0E06491E3EAE1
:1007D000F0E08491E82FF0E0EE0FFF1FE057FF4FAD
:1007E0008591949100E412E42FE030E0462F0E94BE
:1007F000EA02611571058105910529F06F5F7F4F50
:100800008F4F9F4F9F700E94AC052DEC3CEC48E64B
:1008100052E40E9402050E9474056139F1E07F07ED
:100820000CF095C070933C0160933B0180913B01BB
:1008300090913C018F3F910539F034F08FEF90E0BB
:1008400090933C0180933B0180913B0190913C014E
:100850000B970CF481C061E082E00E94990160E096
:1008600083E00E94990160E084E00E94990161E0C8
:1008700085E00E94990182E191E00E943B0281E2C1
:1008800091E00E943B02C0903B01D0903C010D2CB6
:10089000000CEE08FF08F7FE72C06DE28DE391E0F8
:1008A0000E942C0122273327A9012C193D094E094A
:1008B0005F0919A2FE01B1967F01CA01B901A50124
:1008C00094010E943806605DF70162937F01211553
:1008D00031054105510589F7E114F10419F0C7010B
:1008E0000E943B0281E291E00E943B020E941602BC
:1008F0002B013C0188ECC82ED12CE12CF12C0E945C
:1009000016026419750986099709683E73408105C6
:100910009105A8F3F1E0CF1AD108E108F10828EE1B
:10092000420E23E0521E611C711CC114D104E1046B
:10093000F10429F780E090E0892B09F432CF0E947E
:10094000F600882309F42DCF0E9400002ACF1092D0
:100950003C0110923B016ACF60E082E00E94990165
:1009600061E083E00E94990160E084E00E949901C7
:1009700061E085E00E94990184E291E07ECFA701C9
:10098000960119A2CE0181967C01CA01B901A50187
:1009900094010E943806605DF70162937F01211582
:1009A00031054105510589F797CFEDE3F1E0138259
:1009B000128288EE93E0A0E0B0E084839583A68362
:1009C000B78384E091E09183808385EC90E0958704
:1009D000848784EC90E09787868780EC90E0918B09
:1009E000808B81EC90E0938B828B82EC90E0958BF6
:1009F000848B86EC90E0978B868B118E128E138EF3
:100A0000148E08950E9416050C94FE050E94F705A9
:100A100058F00E94F00540F029F45F3F29F00C9453
:100A2000E70551110C9432060C94ED050E940F0657
:100A300068F39923B1F3552391F3951B550BBB270D
:100A4000AA2762177307840738F09F5F5F4F220F52
:100A5000331F441FAA1FA9F335D00E2E3AF0E0E849
:100A600032D091505040E695001CCAF72BD0FE2F93
:100A700029D0660F771F881FBB1F26173707480727
:100A8000AB07B0E809F0BB0B802DBF01FF279358DF
:100A90005F4F3AF09E3F510578F00C94E7050C94B7
:100AA00032065F3FE4F3983ED4F3869577956795D9
:100AB000B795F7959F5FC9F7880F911D9695879514
:100AC00097F90895E1E0660F771F881FBB1F621733
:100AD00073078407BA0720F0621B730B840BBA0BF1
:100AE000EE1F88F7E09508950E947B056894B11188
:100AF0000C94320608950E94170688F09F5798F0CC
:100B0000B92F9927B751B0F0E1F0660F771F881F12
:100B1000991F1AF0BA95C9F714C0B13091F00E942C
:100B20003106B1E008950C943106672F782F88279D
:100B3000B85F39F0B93FCCF3869577956795B39553
:100B4000D9F73EF490958095709561957F4F8F4FC2
:100B50009F4F0895E89409C097FB3EF490958095C7
:100B6000709561957F4F8F4F9F4F9923A9F0F92F73
:100B700096E9BB279395F695879577956795B795F1
:100B8000F111F8CFFAF4BB0F11F460FF1BC06F5FD7
:100B90007F4F8F4F9F4F16C0882311F096E911C0E9
:100BA000772321F09EE8872F762F05C0662371F00A
:100BB00096E8862F70E060E02AF09A95660F771F1E
:100BC000881FDAF7880F9695879597F9089597F912
:100BD0009F6780E870E060E008959FEF80EC0895E3
:100BE00000240A941616170618060906089500240C
:100BF0000A9412161306140605060895092E039486
:100C0000000C11F4882352F0BB0F40F4BF2B11F4F9
:100C100060FF04C06F5F7F4F8F4F9F4F089557FD58
:100C20009058440F551F59F05F3F71F04795880F5A
:100C300097FB991F61F09F3F79F0879508951216F1
:100C400013061406551FF2CF4695F1DF08C016169D
:100C500017061806991FF1CF86957105610508944E
:100C60000895E894BB2766277727CB0197F9089565
:100C7000A1E21A2EAA1BBB1BFD010DC0AA1FBB1FA0
:100C8000EE1FFF1FA217B307E407F50720F0A21B12
:100C9000B30BE40BF50B661F771F881F991F1A947F
:100CA00069F760957095809590959B01AC01BD01A9
:100CB000CF010895EE0FFF1F0590F491E02D0994E8
:040CC000F894FFCFD6
:100CC400000000002C018C00B9007901EA00C80082
:100CD400DC006D6F76696E6720666F72776172648F
:100CE400000D0A007475726E696E67207269676818
:020CF40074008A
:00000001FF
